{
  "_format": "hh-sol-artifact-1",
  "contractName": "Ticket",
  "sourceName": "contracts/Ticket.sol",
  "abi": [
    {
      "inputs": [
        {
          "internalType": "string",
          "name": "name",
          "type": "string"
        },
        {
          "internalType": "string",
          "name": "symbol",
          "type": "string"
        },
        {
          "internalType": "bool",
          "name": "lock",
          "type": "bool"
        },
        {
          "internalType": "string",
          "name": "uri",
          "type": "string"
        }
      ],
      "stateMutability": "nonpayable",
      "type": "constructor"
    },
    {
      "inputs": [
        {
          "internalType": "address",
          "name": "sender",
          "type": "address"
        },
        {
          "internalType": "uint256",
          "name": "tokenId",
          "type": "uint256"
        },
        {
          "internalType": "address",
          "name": "owner",
          "type": "address"
        }
      ],
      "name": "ERC721IncorrectOwner",
      "type": "error"
    },
    {
      "inputs": [
        {
          "internalType": "address",
          "name": "operator",
          "type": "address"
        },
        {
          "internalType": "uint256",
          "name": "tokenId",
          "type": "uint256"
        }
      ],
      "name": "ERC721InsufficientApproval",
      "type": "error"
    },
    {
      "inputs": [
        {
          "internalType": "address",
          "name": "approver",
          "type": "address"
        }
      ],
      "name": "ERC721InvalidApprover",
      "type": "error"
    },
    {
      "inputs": [
        {
          "internalType": "address",
          "name": "operator",
          "type": "address"
        }
      ],
      "name": "ERC721InvalidOperator",
      "type": "error"
    },
    {
      "inputs": [
        {
          "internalType": "address",
          "name": "owner",
          "type": "address"
        }
      ],
      "name": "ERC721InvalidOwner",
      "type": "error"
    },
    {
      "inputs": [
        {
          "internalType": "address",
          "name": "receiver",
          "type": "address"
        }
      ],
      "name": "ERC721InvalidReceiver",
      "type": "error"
    },
    {
      "inputs": [
        {
          "internalType": "address",
          "name": "sender",
          "type": "address"
        }
      ],
      "name": "ERC721InvalidSender",
      "type": "error"
    },
    {
      "inputs": [
        {
          "internalType": "uint256",
          "name": "tokenId",
          "type": "uint256"
        }
      ],
      "name": "ERC721NonexistentToken",
      "type": "error"
    },
    {
      "inputs": [],
      "name": "EnforcedPause",
      "type": "error"
    },
    {
      "inputs": [],
      "name": "ErrLocked",
      "type": "error"
    },
    {
      "inputs": [],
      "name": "ErrNotFound",
      "type": "error"
    },
    {
      "inputs": [],
      "name": "ExpectedPause",
      "type": "error"
    },
    {
      "inputs": [
        {
          "internalType": "address",
          "name": "owner",
          "type": "address"
        }
      ],
      "name": "OwnableInvalidOwner",
      "type": "error"
    },
    {
      "inputs": [
        {
          "internalType": "address",
          "name": "account",
          "type": "address"
        }
      ],
      "name": "OwnableUnauthorizedAccount",
      "type": "error"
    },
    {
      "anonymous": false,
      "inputs": [
        {
          "indexed": true,
          "internalType": "address",
          "name": "owner",
          "type": "address"
        },
        {
          "indexed": true,
          "internalType": "address",
          "name": "approved",
          "type": "address"
        },
        {
          "indexed": true,
          "internalType": "uint256",
          "name": "tokenId",
          "type": "uint256"
        }
      ],
      "name": "Approval",
      "type": "event"
    },
    {
      "anonymous": false,
      "inputs": [
        {
          "indexed": true,
          "internalType": "address",
          "name": "owner",
          "type": "address"
        },
        {
          "indexed": true,
          "internalType": "address",
          "name": "operator",
          "type": "address"
        },
        {
          "indexed": false,
          "internalType": "bool",
          "name": "approved",
          "type": "bool"
        }
      ],
      "name": "ApprovalForAll",
      "type": "event"
    },
    {
      "anonymous": false,
      "inputs": [
        {
          "indexed": false,
          "internalType": "uint256",
          "name": "_fromTokenId",
          "type": "uint256"
        },
        {
          "indexed": false,
          "internalType": "uint256",
          "name": "_toTokenId",
          "type": "uint256"
        }
      ],
      "name": "BatchMetadataUpdate",
      "type": "event"
    },
    {
      "anonymous": false,
      "inputs": [
        {
          "indexed": false,
          "internalType": "uint256",
          "name": "tokenId",
          "type": "uint256"
        }
      ],
      "name": "Locked",
      "type": "event"
    },
    {
      "anonymous": false,
      "inputs": [
        {
          "indexed": false,
          "internalType": "uint256",
          "name": "_tokenId",
          "type": "uint256"
        }
      ],
      "name": "MetadataUpdate",
      "type": "event"
    },
    {
      "anonymous": false,
      "inputs": [
        {
          "indexed": true,
          "internalType": "address",
          "name": "previousOwner",
          "type": "address"
        },
        {
          "indexed": true,
          "internalType": "address",
          "name": "newOwner",
          "type": "address"
        }
      ],
      "name": "OwnershipTransferred",
      "type": "event"
    },
    {
      "anonymous": false,
      "inputs": [
        {
          "indexed": false,
          "internalType": "address",
          "name": "account",
          "type": "address"
        }
      ],
      "name": "Paused",
      "type": "event"
    },
    {
      "anonymous": false,
      "inputs": [
        {
          "indexed": true,
          "internalType": "address",
          "name": "from",
          "type": "address"
        },
        {
          "indexed": true,
          "internalType": "address",
          "name": "to",
          "type": "address"
        },
        {
          "indexed": true,
          "internalType": "uint256",
          "name": "tokenId",
          "type": "uint256"
        }
      ],
      "name": "Transfer",
      "type": "event"
    },
    {
      "anonymous": false,
      "inputs": [
        {
          "indexed": false,
          "internalType": "uint256",
          "name": "tokenId",
          "type": "uint256"
        }
      ],
      "name": "Unlocked",
      "type": "event"
    },
    {
      "anonymous": false,
      "inputs": [
        {
          "indexed": false,
          "internalType": "address",
          "name": "account",
          "type": "address"
        }
      ],
      "name": "Unpaused",
      "type": "event"
    },
    {
      "inputs": [
        {
          "internalType": "address",
          "name": "approved",
          "type": "address"
        },
        {
          "internalType": "uint256",
          "name": "tokenId",
          "type": "uint256"
        }
      ],
      "name": "approve",
      "outputs": [],
      "stateMutability": "nonpayable",
      "type": "function"
    },
    {
      "inputs": [
        {
          "internalType": "address",
          "name": "owner",
          "type": "address"
        }
      ],
      "name": "balanceOf",
      "outputs": [
        {
          "internalType": "uint256",
          "name": "",
          "type": "uint256"
        }
      ],
      "stateMutability": "view",
      "type": "function"
    },
    {
      "inputs": [
        {
          "internalType": "uint256",
          "name": "tokenId",
          "type": "uint256"
        }
      ],
      "name": "burn",
      "outputs": [],
      "stateMutability": "nonpayable",
      "type": "function"
    },
    {
      "inputs": [
        {
          "internalType": "uint256",
          "name": "tokenId",
          "type": "uint256"
        }
      ],
      "name": "getApproved",
      "outputs": [
        {
          "internalType": "address",
          "name": "",
          "type": "address"
        }
      ],
      "stateMutability": "view",
      "type": "function"
    },
    {
      "inputs": [
        {
          "internalType": "address",
          "name": "owner",
          "type": "address"
        },
        {
          "internalType": "address",
          "name": "operator",
          "type": "address"
        }
      ],
      "name": "isApprovedForAll",
      "outputs": [
        {
          "internalType": "bool",
          "name": "",
          "type": "bool"
        }
      ],
      "stateMutability": "view",
      "type": "function"
    },
    {
      "inputs": [
        {
          "internalType": "uint256",
          "name": "tokenId",
          "type": "uint256"
        }
      ],
      "name": "locked",
      "outputs": [
        {
          "internalType": "bool",
          "name": "",
          "type": "bool"
        }
      ],
      "stateMutability": "view",
      "type": "function"
    },
    {
      "inputs": [
        {
          "internalType": "address",
          "name": "to",
          "type": "address"
        }
      ],
      "name": "mint",
      "outputs": [],
      "stateMutability": "nonpayable",
      "type": "function"
    },
    {
      "inputs": [],
      "name": "name",
      "outputs": [
        {
          "internalType": "string",
          "name": "",
          "type": "string"
        }
      ],
      "stateMutability": "view",
      "type": "function"
    },
    {
      "inputs": [],
      "name": "owner",
      "outputs": [
        {
          "internalType": "address",
          "name": "",
          "type": "address"
        }
      ],
      "stateMutability": "view",
      "type": "function"
    },
    {
      "inputs": [
        {
          "internalType": "uint256",
          "name": "tokenId",
          "type": "uint256"
        }
      ],
      "name": "ownerOf",
      "outputs": [
        {
          "internalType": "address",
          "name": "",
          "type": "address"
        }
      ],
      "stateMutability": "view",
      "type": "function"
    },
    {
      "inputs": [],
      "name": "paused",
      "outputs": [
        {
          "internalType": "bool",
          "name": "",
          "type": "bool"
        }
      ],
      "stateMutability": "view",
      "type": "function"
    },
    {
      "inputs": [],
      "name": "renounceOwnership",
      "outputs": [],
      "stateMutability": "nonpayable",
      "type": "function"
    },
    {
      "inputs": [
        {
          "internalType": "address",
          "name": "from",
          "type": "address"
        },
        {
          "internalType": "address",
          "name": "to",
          "type": "address"
        },
        {
          "internalType": "uint256",
          "name": "tokenId",
          "type": "uint256"
        }
      ],
      "name": "safeTransferFrom",
      "outputs": [],
      "stateMutability": "nonpayable",
      "type": "function"
    },
    {
      "inputs": [
        {
          "internalType": "address",
          "name": "from",
          "type": "address"
        },
        {
          "internalType": "address",
          "name": "to",
          "type": "address"
        },
        {
          "internalType": "uint256",
          "name": "tokenId",
          "type": "uint256"
        },
        {
          "internalType": "bytes",
          "name": "data",
          "type": "bytes"
        }
      ],
      "name": "safeTransferFrom",
      "outputs": [],
      "stateMutability": "nonpayable",
      "type": "function"
    },
    {
      "inputs": [
        {
          "internalType": "address",
          "name": "operator",
          "type": "address"
        },
        {
          "internalType": "bool",
          "name": "approved",
          "type": "bool"
        }
      ],
      "name": "setApprovalForAll",
      "outputs": [],
      "stateMutability": "nonpayable",
      "type": "function"
    },
    {
      "inputs": [
        {
          "internalType": "uint256",
          "name": "tokenId",
          "type": "uint256"
        },
        {
          "internalType": "string",
          "name": "uri",
          "type": "string"
        }
      ],
      "name": "setTokenURI",
      "outputs": [],
      "stateMutability": "nonpayable",
      "type": "function"
    },
    {
      "inputs": [
        {
          "internalType": "bytes4",
          "name": "interfaceId",
          "type": "bytes4"
        }
      ],
      "name": "supportsInterface",
      "outputs": [
        {
          "internalType": "bool",
          "name": "",
          "type": "bool"
        }
      ],
      "stateMutability": "view",
      "type": "function"
    },
    {
      "inputs": [],
      "name": "symbol",
      "outputs": [
        {
          "internalType": "string",
          "name": "",
          "type": "string"
        }
      ],
      "stateMutability": "view",
      "type": "function"
    },
    {
      "inputs": [
        {
          "internalType": "uint256",
          "name": "tokenId",
          "type": "uint256"
        }
      ],
      "name": "tokenURI",
      "outputs": [
        {
          "internalType": "string",
          "name": "",
          "type": "string"
        }
      ],
      "stateMutability": "view",
      "type": "function"
    },
    {
      "inputs": [
        {
          "internalType": "address",
          "name": "from",
          "type": "address"
        },
        {
          "internalType": "address",
          "name": "to",
          "type": "address"
        },
        {
          "internalType": "uint256",
          "name": "tokenId",
          "type": "uint256"
        }
      ],
      "name": "transferFrom",
      "outputs": [],
      "stateMutability": "nonpayable",
      "type": "function"
    },
    {
      "inputs": [
        {
          "internalType": "address",
          "name": "newOwner",
          "type": "address"
        }
      ],
      "name": "transferOwnership",
      "outputs": [],
      "stateMutability": "nonpayable",
      "type": "function"
    },
    {
      "inputs": [],
      "name": "updateToPause",
      "outputs": [],
      "stateMutability": "nonpayable",
      "type": "function"
    },
    {
      "inputs": [],
      "name": "updateToUnPause",
      "outputs": [],
      "stateMutability": "nonpayable",
      "type": "function"
    }
  ],
  "bytecode": "0x60806040523480156200001157600080fd5b50604051620035a5380380620035a58339818101604052810190620000379190620003da565b838383828233600073ffffffffffffffffffffffffffffffffffffffff168173ffffffffffffffffffffffffffffffffffffffff1603620000b25760006040517f1e4fbdf7000000000000000000000000000000000000000000000000000000008152600401620000a99190620004ee565b60405180910390fd5b620000c3816200014660201b60201c565b508160019081620000d5919062000756565b508060029081620000e7919062000756565b5050506000600760006101000a81548160ff02191690831515021790555080600960006101000a81548160ff0219169083151502179055505050506000600a8190555080600b90816200013b919062000756565b50505050506200083d565b60008060009054906101000a900473ffffffffffffffffffffffffffffffffffffffff169050816000806101000a81548173ffffffffffffffffffffffffffffffffffffffff021916908373ffffffffffffffffffffffffffffffffffffffff1602179055508173ffffffffffffffffffffffffffffffffffffffff168173ffffffffffffffffffffffffffffffffffffffff167f8be0079c531659141344cd1fd0a4f28419497f9722a3daafe3b4186f6b6457e060405160405180910390a35050565b6000604051905090565b600080fd5b600080fd5b600080fd5b600080fd5b6000601f19601f8301169050919050565b7f4e487b7100000000000000000000000000000000000000000000000000000000600052604160045260246000fd5b620002738262000228565b810181811067ffffffffffffffff8211171562000295576200029462000239565b5b80604052505050565b6000620002aa6200020a565b9050620002b8828262000268565b919050565b600067ffffffffffffffff821115620002db57620002da62000239565b5b620002e68262000228565b9050602081019050919050565b60005b8381101562000313578082015181840152602081019050620002f6565b60008484015250505050565b6000620003366200033084620002bd565b6200029e565b90508281526020810184848401111562000355576200035462000223565b5b62000362848285620002f3565b509392505050565b600082601f8301126200038257620003816200021e565b5b8151620003948482602086016200031f565b91505092915050565b60008115159050919050565b620003b4816200039d565b8114620003c057600080fd5b50565b600081519050620003d481620003a9565b92915050565b60008060008060808587031215620003f757620003f662000214565b5b600085015167ffffffffffffffff81111562000418576200041762000219565b5b62000426878288016200036a565b945050602085015167ffffffffffffffff8111156200044a576200044962000219565b5b62000458878288016200036a565b93505060406200046b87828801620003c3565b925050606085015167ffffffffffffffff8111156200048f576200048e62000219565b5b6200049d878288016200036a565b91505092959194509250565b600073ffffffffffffffffffffffffffffffffffffffff82169050919050565b6000620004d682620004a9565b9050919050565b620004e881620004c9565b82525050565b6000602082019050620005056000830184620004dd565b92915050565b600081519050919050565b7f4e487b7100000000000000000000000000000000000000000000000000000000600052602260045260246000fd5b600060028204905060018216806200055e57607f821691505b60208210810362000574576200057362000516565b5b50919050565b60008190508160005260206000209050919050565b60006020601f8301049050919050565b600082821b905092915050565b600060088302620005de7fffffffffffffffffffffffffffffffffffffffffffffffffffffffffffffffff826200059f565b620005ea86836200059f565b95508019841693508086168417925050509392505050565b6000819050919050565b6000819050919050565b600062000637620006316200062b8462000602565b6200060c565b62000602565b9050919050565b6000819050919050565b620006538362000616565b6200066b62000662826200063e565b848454620005ac565b825550505050565b600090565b6200068262000673565b6200068f81848462000648565b505050565b5b81811015620006b757620006ab60008262000678565b60018101905062000695565b5050565b601f8211156200070657620006d0816200057a565b620006db846200058f565b81016020851015620006eb578190505b62000703620006fa856200058f565b83018262000694565b50505b505050565b600082821c905092915050565b60006200072b600019846008026200070b565b1980831691505092915050565b600062000746838362000718565b9150826002028217905092915050565b62000761826200050b565b67ffffffffffffffff8111156200077d576200077c62000239565b5b62000789825462000545565b62000796828285620006bb565b600060209050601f831160018114620007ce5760008415620007b9578287015190505b620007c5858262000738565b86555062000835565b601f198416620007de866200057a565b60005b828110156200080857848901518255600182019150602085019450602081019050620007e1565b8683101562000828578489015162000824601f89168262000718565b8355505b6001600288020188555050505b505050505050565b612d58806200084d6000396000f3fe608060405234801561001057600080fd5b506004361061014d5760003560e01c80636a627842116100c3578063a22cb4651161007c578063a22cb46514610350578063b45a3c0e1461036c578063b88d4fde1461039c578063c87b56dd146103b8578063e985e9c5146103e8578063f2fde38b146104185761014d565b80636a627842146102b457806370a08231146102d0578063715018a6146103005780638da5cb5b1461030a5780638ddea1f91461032857806395d89b41146103325761014d565b806323b872dd1161011557806323b872dd1461020857806342842e0e1461022457806342966c6814610240578063521f0f921461025c5780635c975abb146102665780636352211e146102845761014d565b806301ffc9a71461015257806306fdde0314610182578063081812fc146101a0578063095ea7b3146101d0578063162094c4146101ec575b600080fd5b61016c60048036038101906101679190612158565b610434565b60405161017991906121a0565b60405180910390f35b61018a6104ae565b604051610197919061224b565b60405180910390f35b6101ba60048036038101906101b591906122a3565b610540565b6040516101c79190612311565b60405180910390f35b6101ea60048036038101906101e59190612358565b61055c565b005b610206600480360381019061020191906124cd565b6105b1565b005b610222600480360381019061021d9190612529565b6105c7565b005b61023e60048036038101906102399190612529565b61061e565b005b61025a600480360381019061025591906122a3565b610675565b005b610264610689565b005b61026e61069b565b60405161027b91906121a0565b60405180910390f35b61029e600480360381019061029991906122a3565b6106b2565b6040516102ab9190612311565b60405180910390f35b6102ce60048036038101906102c9919061257c565b6106c4565b005b6102ea60048036038101906102e5919061257c565b6107d6565b6040516102f791906125b8565b60405180910390f35b610308610890565b005b6103126108a4565b60405161031f9190612311565b60405180910390f35b6103306108cd565b005b61033a6108df565b604051610347919061224b565b60405180910390f35b61036a600480360381019061036591906125ff565b610971565b005b610386600480360381019061038191906122a3565b6109c6565b60405161039391906121a0565b60405180910390f35b6103b660048036038101906103b191906126e0565b610a4c565b005b6103d260048036038101906103cd91906122a3565b610aa5565b6040516103df919061224b565b60405180910390f35b61040260048036038101906103fd9190612763565b610ab7565b60405161040f91906121a0565b60405180910390f35b610432600480360381019061042d919061257c565b610b4b565b005b60007fb45a3c0e000000000000000000000000000000000000000000000000000000007bffffffffffffffffffffffffffffffffffffffffffffffffffffffff1916827bffffffffffffffffffffffffffffffffffffffffffffffffffffffff191614806104a757506104a682610bd1565b5b9050919050565b6060600180546104bd906127d2565b80601f01602080910402602001604051908101604052809291908181526020018280546104e9906127d2565b80156105365780601f1061050b57610100808354040283529160200191610536565b820191906000526020600020905b81548152906001019060200180831161051957829003601f168201915b5050505050905090565b600061054b82610c32565b5061055582610cba565b9050919050565b600960009054906101000a900460ff16156105a3576040517fbd291a9500000000000000000000000000000000000000000000000000000000815260040160405180910390fd5b6105ad8282610cf7565b5050565b6105b9610d0d565b6105c38282610d94565b5050565b600960009054906101000a900460ff161561060e576040517fbd291a9500000000000000000000000000000000000000000000000000000000815260040160405180910390fd5b610619838383610df0565b505050565b600960009054906101000a900460ff1615610665576040517fbd291a9500000000000000000000000000000000000000000000000000000000815260040160405180910390fd5b610670838383610ef2565b505050565b61067d610d0d565b61068681610f12565b50565b610691610d0d565b610699610f98565b565b6000600760009054906101000a900460ff16905090565b60006106bd82610c32565b9050919050565b6106cc610ffb565b60006106d7826107d6565b14610717576040517f08c379a000000000000000000000000000000000000000000000000000000000815260040161070e9061284f565b60405180910390fd5b61072381600a5461103c565b6107b9600a54600b8054610736906127d2565b80601f0160208091040260200160405190810160405280929190818152602001828054610762906127d2565b80156107af5780601f10610784576101008083540402835291602001916107af565b820191906000526020600020905b81548152906001019060200180831161079257829003601f168201915b5050505050610d94565b6001600a60008282546107cc919061289e565b9250508190555050565b60008073ffffffffffffffffffffffffffffffffffffffff168273ffffffffffffffffffffffffffffffffffffffff16036108495760006040517f89c62b640000000000000000000000000000000000000000000000000000000081526004016108409190612311565b60405180910390fd5b600460008373ffffffffffffffffffffffffffffffffffffffff1673ffffffffffffffffffffffffffffffffffffffff168152602001908152602001600020549050919050565b610898610d0d565b6108a26000611135565b565b60008060009054906101000a900473ffffffffffffffffffffffffffffffffffffffff16905090565b6108d5610d0d565b6108dd6111f9565b565b6060600280546108ee906127d2565b80601f016020809104026020016040519081016040528092919081815260200182805461091a906127d2565b80156109675780601f1061093c57610100808354040283529160200191610967565b820191906000526020600020905b81548152906001019060200180831161094a57829003601f168201915b5050505050905090565b600960009054906101000a900460ff16156109b8576040517fbd291a9500000000000000000000000000000000000000000000000000000000815260040160405180910390fd5b6109c2828261125c565b5050565b60008073ffffffffffffffffffffffffffffffffffffffff166109e883611272565b73ffffffffffffffffffffffffffffffffffffffff1603610a35576040517fae9a63f500000000000000000000000000000000000000000000000000000000815260040160405180910390fd5b600960009054906101000a900460ff169050919050565b600960009054906101000a900460ff1615610a93576040517fbd291a9500000000000000000000000000000000000000000000000000000000815260040160405180910390fd5b610a9f848484846112af565b50505050565b6060610ab0826112cc565b9050919050565b6000600660008473ffffffffffffffffffffffffffffffffffffffff1673ffffffffffffffffffffffffffffffffffffffff16815260200190815260200160002060008373ffffffffffffffffffffffffffffffffffffffff1673ffffffffffffffffffffffffffffffffffffffff16815260200190815260200160002060009054906101000a900460ff16905092915050565b610b53610d0d565b600073ffffffffffffffffffffffffffffffffffffffff168173ffffffffffffffffffffffffffffffffffffffff1603610bc55760006040517f1e4fbdf7000000000000000000000000000000000000000000000000000000008152600401610bbc9190612311565b60405180910390fd5b610bce81611135565b50565b6000634906490660e01b7bffffffffffffffffffffffffffffffffffffffffffffffffffffffff1916827bffffffffffffffffffffffffffffffffffffffffffffffffffffffff19161480610c2b5750610c2a826113df565b5b9050919050565b600080610c3e83611272565b9050600073ffffffffffffffffffffffffffffffffffffffff168173ffffffffffffffffffffffffffffffffffffffff1603610cb157826040517f7e273289000000000000000000000000000000000000000000000000000000008152600401610ca891906125b8565b60405180910390fd5b80915050919050565b60006005600083815260200190815260200160002060009054906101000a900473ffffffffffffffffffffffffffffffffffffffff169050919050565b610d098282610d046114c1565b6114c9565b5050565b610d156114c1565b73ffffffffffffffffffffffffffffffffffffffff16610d336108a4565b73ffffffffffffffffffffffffffffffffffffffff1614610d9257610d566114c1565b6040517f118cdaa7000000000000000000000000000000000000000000000000000000008152600401610d899190612311565b60405180910390fd5b565b80600860008481526020019081526020016000209081610db49190612a7e565b507ff8e1a15aba9398e019f0b49df1a4fde98ee17ae345cb5f6b5e2c27f5033e8ce782604051610de491906125b8565b60405180910390a15050565b600073ffffffffffffffffffffffffffffffffffffffff168273ffffffffffffffffffffffffffffffffffffffff1603610e625760006040517f64a0ae92000000000000000000000000000000000000000000000000000000008152600401610e599190612311565b60405180910390fd5b6000610e768383610e716114c1565b6114db565b90508373ffffffffffffffffffffffffffffffffffffffff168173ffffffffffffffffffffffffffffffffffffffff1614610eec578382826040517f64283d7b000000000000000000000000000000000000000000000000000000008152600401610ee393929190612b50565b60405180910390fd5b50505050565b610f0d83838360405180602001604052806000815250610a4c565b505050565b6000610f2160008360006114db565b9050600073ffffffffffffffffffffffffffffffffffffffff168173ffffffffffffffffffffffffffffffffffffffff1603610f9457816040517f7e273289000000000000000000000000000000000000000000000000000000008152600401610f8b91906125b8565b60405180910390fd5b5050565b610fa0610ffb565b6001600760006101000a81548160ff0219169083151502179055507f62e78cea01bee320cd4e420270b5ea74000d11b0c9f74754ebdbfc544b05a258610fe46114c1565b604051610ff19190612311565b60405180910390a1565b61100361069b565b1561103a576040517fd93c066500000000000000000000000000000000000000000000000000000000815260040160405180910390fd5b565b600073ffffffffffffffffffffffffffffffffffffffff168273ffffffffffffffffffffffffffffffffffffffff16036110ae5760006040517f64a0ae920000000000000000000000000000000000000000000000000000000081526004016110a59190612311565b60405180910390fd5b60006110bc838360006114db565b9050600073ffffffffffffffffffffffffffffffffffffffff168173ffffffffffffffffffffffffffffffffffffffff16146111305760006040517f73c6ac6e0000000000000000000000000000000000000000000000000000000081526004016111279190612311565b60405180910390fd5b505050565b60008060009054906101000a900473ffffffffffffffffffffffffffffffffffffffff169050816000806101000a81548173ffffffffffffffffffffffffffffffffffffffff021916908373ffffffffffffffffffffffffffffffffffffffff1602179055508173ffffffffffffffffffffffffffffffffffffffff168173ffffffffffffffffffffffffffffffffffffffff167f8be0079c531659141344cd1fd0a4f28419497f9722a3daafe3b4186f6b6457e060405160405180910390a35050565b6112016114f9565b6000600760006101000a81548160ff0219169083151502179055507f5db9ee0a495bf2e6ff9c91a7834c1ba4fdd244a5e8aa4e537bd38aeae4b073aa6112456114c1565b6040516112529190612311565b60405180910390a1565b61126e6112676114c1565b8383611539565b5050565b60006003600083815260200190815260200160002060009054906101000a900473ffffffffffffffffffffffffffffffffffffffff169050919050565b6112ba8484846105c7565b6112c6848484846116a8565b50505050565b60606112d782610c32565b5060006008600084815260200190815260200160002080546112f8906127d2565b80601f0160208091040260200160405190810160405280929190818152602001828054611324906127d2565b80156113715780601f1061134657610100808354040283529160200191611371565b820191906000526020600020905b81548152906001019060200180831161135457829003601f168201915b50505050509050600061138261185f565b905060008151036113975781925050506113da565b6000825111156113cc5780826040516020016113b4929190612bc3565b604051602081830303815290604052925050506113da565b6113d584611876565b925050505b919050565b60007f80ac58cd000000000000000000000000000000000000000000000000000000007bffffffffffffffffffffffffffffffffffffffffffffffffffffffff1916827bffffffffffffffffffffffffffffffffffffffffffffffffffffffff191614806114aa57507f5b5e139f000000000000000000000000000000000000000000000000000000007bffffffffffffffffffffffffffffffffffffffffffffffffffffffff1916827bffffffffffffffffffffffffffffffffffffffffffffffffffffffff1916145b806114ba57506114b9826118df565b5b9050919050565b600033905090565b6114d68383836001611949565b505050565b60006114e5610ffb565b6114f0848484611b0e565b90509392505050565b61150161069b565b611537576040517f8dfc202b00000000000000000000000000000000000000000000000000000000815260040160405180910390fd5b565b600073ffffffffffffffffffffffffffffffffffffffff168273ffffffffffffffffffffffffffffffffffffffff16036115aa57816040517f5b08ba180000000000000000000000000000000000000000000000000000000081526004016115a19190612311565b60405180910390fd5b80600660008573ffffffffffffffffffffffffffffffffffffffff1673ffffffffffffffffffffffffffffffffffffffff16815260200190815260200160002060008473ffffffffffffffffffffffffffffffffffffffff1673ffffffffffffffffffffffffffffffffffffffff16815260200190815260200160002060006101000a81548160ff0219169083151502179055508173ffffffffffffffffffffffffffffffffffffffff168373ffffffffffffffffffffffffffffffffffffffff167f17307eab39ab6107e8899845ad3d59bd9653f200f220920489ca2b5937696c318360405161169b91906121a0565b60405180910390a3505050565b60008373ffffffffffffffffffffffffffffffffffffffff163b1115611859578273ffffffffffffffffffffffffffffffffffffffff1663150b7a026116ec6114c1565b8685856040518563ffffffff1660e01b815260040161170e9493929190612c3c565b6020604051808303816000875af192505050801561174a57506040513d601f19601f820116820180604052508101906117479190612c9d565b60015b6117ce573d806000811461177a576040519150601f19603f3d011682016040523d82523d6000602084013e61177f565b606091505b5060008151036117c657836040517f64a0ae920000000000000000000000000000000000000000000000000000000081526004016117bd9190612311565b60405180910390fd5b805181602001fd5b63150b7a0260e01b7bffffffffffffffffffffffffffffffffffffffffffffffffffffffff1916817bffffffffffffffffffffffffffffffffffffffffffffffffffffffff19161461185757836040517f64a0ae9200000000000000000000000000000000000000000000000000000000815260040161184e9190612311565b60405180910390fd5b505b50505050565b606060405180602001604052806000815250905090565b606061188182610c32565b50600061188c61185f565b905060008151116118ac57604051806020016040528060008152506118d7565b806118b684611b2c565b6040516020016118c7929190612bc3565b6040516020818303038152906040525b915050919050565b60007f01ffc9a7000000000000000000000000000000000000000000000000000000007bffffffffffffffffffffffffffffffffffffffffffffffffffffffff1916827bffffffffffffffffffffffffffffffffffffffffffffffffffffffff1916149050919050565b80806119825750600073ffffffffffffffffffffffffffffffffffffffff168273ffffffffffffffffffffffffffffffffffffffff1614155b15611ab657600061199284610c32565b9050600073ffffffffffffffffffffffffffffffffffffffff168373ffffffffffffffffffffffffffffffffffffffff16141580156119fd57508273ffffffffffffffffffffffffffffffffffffffff168173ffffffffffffffffffffffffffffffffffffffff1614155b8015611a105750611a0e8184610ab7565b155b15611a5257826040517fa9fbf51f000000000000000000000000000000000000000000000000000000008152600401611a499190612311565b60405180910390fd5b8115611ab457838573ffffffffffffffffffffffffffffffffffffffff168273ffffffffffffffffffffffffffffffffffffffff167f8c5be1e5ebec7d5bd14f71427d1e84f3dd0314c0f7b2291e5b200ac8c7c3b92560405160405180910390a45b505b836005600085815260200190815260200160002060006101000a81548173ffffffffffffffffffffffffffffffffffffffff021916908373ffffffffffffffffffffffffffffffffffffffff16021790555050505050565b6000611b18610ffb565b611b23848484611bfa565b90509392505050565b606060006001611b3b84611e14565b01905060008167ffffffffffffffff811115611b5a57611b596123a2565b5b6040519080825280601f01601f191660200182016040528015611b8c5781602001600182028036833780820191505090505b509050600082602001820190505b600115611bef578080600190039150507f3031323334353637383961626364656600000000000000000000000000000000600a86061a8153600a8581611be357611be2612cca565b5b04945060008503611b9a575b819350505050919050565b600080611c0684611272565b9050600073ffffffffffffffffffffffffffffffffffffffff168373ffffffffffffffffffffffffffffffffffffffff1614611c4857611c47818486611f67565b5b600073ffffffffffffffffffffffffffffffffffffffff168173ffffffffffffffffffffffffffffffffffffffff1614611cd957611c8a600085600080611949565b6001600460008373ffffffffffffffffffffffffffffffffffffffff1673ffffffffffffffffffffffffffffffffffffffff168152602001908152602001600020600082825403925050819055505b600073ffffffffffffffffffffffffffffffffffffffff168573ffffffffffffffffffffffffffffffffffffffff1614611d5c576001600460008773ffffffffffffffffffffffffffffffffffffffff1673ffffffffffffffffffffffffffffffffffffffff168152602001908152602001600020600082825401925050819055505b846003600086815260200190815260200160002060006101000a81548173ffffffffffffffffffffffffffffffffffffffff021916908373ffffffffffffffffffffffffffffffffffffffff160217905550838573ffffffffffffffffffffffffffffffffffffffff168273ffffffffffffffffffffffffffffffffffffffff167fddf252ad1be2c89b69c2b068fc378daa952ba7f163c4a11628f55a4df523b3ef60405160405180910390a4809150509392505050565b600080600090507a184f03e93ff9f4daa797ed6e38ed64bf6a1f0100000000000000008310611e72577a184f03e93ff9f4daa797ed6e38ed64bf6a1f0100000000000000008381611e6857611e67612cca565b5b0492506040810190505b6d04ee2d6d415b85acef81000000008310611eaf576d04ee2d6d415b85acef81000000008381611ea557611ea4612cca565b5b0492506020810190505b662386f26fc100008310611ede57662386f26fc100008381611ed457611ed3612cca565b5b0492506010810190505b6305f5e1008310611f07576305f5e1008381611efd57611efc612cca565b5b0492506008810190505b6127108310611f2c576127108381611f2257611f21612cca565b5b0492506004810190505b60648310611f4f5760648381611f4557611f44612cca565b5b0492506002810190505b600a8310611f5e576001810190505b80915050919050565b611f7283838361202b565b61202657600073ffffffffffffffffffffffffffffffffffffffff168373ffffffffffffffffffffffffffffffffffffffff1603611fe757806040517f7e273289000000000000000000000000000000000000000000000000000000008152600401611fde91906125b8565b60405180910390fd5b81816040517f177e802f00000000000000000000000000000000000000000000000000000000815260040161201d929190612cf9565b60405180910390fd5b505050565b60008073ffffffffffffffffffffffffffffffffffffffff168373ffffffffffffffffffffffffffffffffffffffff16141580156120e357508273ffffffffffffffffffffffffffffffffffffffff168473ffffffffffffffffffffffffffffffffffffffff1614806120a457506120a38484610ab7565b5b806120e257508273ffffffffffffffffffffffffffffffffffffffff166120ca83610cba565b73ffffffffffffffffffffffffffffffffffffffff16145b5b90509392505050565b6000604051905090565b600080fd5b600080fd5b60007fffffffff0000000000000000000000000000000000000000000000000000000082169050919050565b61213581612100565b811461214057600080fd5b50565b6000813590506121528161212c565b92915050565b60006020828403121561216e5761216d6120f6565b5b600061217c84828501612143565b91505092915050565b60008115159050919050565b61219a81612185565b82525050565b60006020820190506121b56000830184612191565b92915050565b600081519050919050565b600082825260208201905092915050565b60005b838110156121f55780820151818401526020810190506121da565b60008484015250505050565b6000601f19601f8301169050919050565b600061221d826121bb565b61222781856121c6565b93506122378185602086016121d7565b61224081612201565b840191505092915050565b600060208201905081810360008301526122658184612212565b905092915050565b6000819050919050565b6122808161226d565b811461228b57600080fd5b50565b60008135905061229d81612277565b92915050565b6000602082840312156122b9576122b86120f6565b5b60006122c78482850161228e565b91505092915050565b600073ffffffffffffffffffffffffffffffffffffffff82169050919050565b60006122fb826122d0565b9050919050565b61230b816122f0565b82525050565b60006020820190506123266000830184612302565b92915050565b612335816122f0565b811461234057600080fd5b50565b6000813590506123528161232c565b92915050565b6000806040838503121561236f5761236e6120f6565b5b600061237d85828601612343565b925050602061238e8582860161228e565b9150509250929050565b600080fd5b600080fd5b7f4e487b7100000000000000000000000000000000000000000000000000000000600052604160045260246000fd5b6123da82612201565b810181811067ffffffffffffffff821117156123f9576123f86123a2565b5b80604052505050565b600061240c6120ec565b905061241882826123d1565b919050565b600067ffffffffffffffff821115612438576124376123a2565b5b61244182612201565b9050602081019050919050565b82818337600083830152505050565b600061247061246b8461241d565b612402565b90508281526020810184848401111561248c5761248b61239d565b5b61249784828561244e565b509392505050565b600082601f8301126124b4576124b3612398565b5b81356124c484826020860161245d565b91505092915050565b600080604083850312156124e4576124e36120f6565b5b60006124f28582860161228e565b925050602083013567ffffffffffffffff811115612513576125126120fb565b5b61251f8582860161249f565b9150509250929050565b600080600060608486031215612542576125416120f6565b5b600061255086828701612343565b935050602061256186828701612343565b92505060406125728682870161228e565b9150509250925092565b600060208284031215612592576125916120f6565b5b60006125a084828501612343565b91505092915050565b6125b28161226d565b82525050565b60006020820190506125cd60008301846125a9565b92915050565b6125dc81612185565b81146125e757600080fd5b50565b6000813590506125f9816125d3565b92915050565b60008060408385031215612616576126156120f6565b5b600061262485828601612343565b9250506020612635858286016125ea565b9150509250929050565b600067ffffffffffffffff82111561265a576126596123a2565b5b61266382612201565b9050602081019050919050565b600061268361267e8461263f565b612402565b90508281526020810184848401111561269f5761269e61239d565b5b6126aa84828561244e565b509392505050565b600082601f8301126126c7576126c6612398565b5b81356126d7848260208601612670565b91505092915050565b600080600080608085870312156126fa576126f96120f6565b5b600061270887828801612343565b945050602061271987828801612343565b935050604061272a8782880161228e565b925050606085013567ffffffffffffffff81111561274b5761274a6120fb565b5b612757878288016126b2565b91505092959194509250565b6000806040838503121561277a576127796120f6565b5b600061278885828601612343565b925050602061279985828601612343565b9150509250929050565b7f4e487b7100000000000000000000000000000000000000000000000000000000600052602260045260246000fd5b600060028204905060018216806127ea57607f821691505b6020821081036127fd576127fc6127a3565b5b50919050565b7f5573657220616c7265616479206f776e7320616e204e46540000000000000000600082015250565b60006128396018836121c6565b915061284482612803565b602082019050919050565b600060208201905081810360008301526128688161282c565b9050919050565b7f4e487b7100000000000000000000000000000000000000000000000000000000600052601160045260246000fd5b60006128a98261226d565b91506128b48361226d565b92508282019050808211156128cc576128cb61286f565b5b92915050565b60008190508160005260206000209050919050565b60006020601f8301049050919050565b600082821b905092915050565b6000600883026129347fffffffffffffffffffffffffffffffffffffffffffffffffffffffffffffffff826128f7565b61293e86836128f7565b95508019841693508086168417925050509392505050565b6000819050919050565b600061297b6129766129718461226d565b612956565b61226d565b9050919050565b6000819050919050565b61299583612960565b6129a96129a182612982565b848454612904565b825550505050565b600090565b6129be6129b1565b6129c981848461298c565b505050565b5b818110156129ed576129e26000826129b6565b6001810190506129cf565b5050565b601f821115612a3257612a03816128d2565b612a0c846128e7565b81016020851015612a1b578190505b612a2f612a27856128e7565b8301826129ce565b50505b505050565b600082821c905092915050565b6000612a5560001984600802612a37565b1980831691505092915050565b6000612a6e8383612a44565b9150826002028217905092915050565b612a87826121bb565b67ffffffffffffffff811115612aa057612a9f6123a2565b5b612aaa82546127d2565b612ab58282856129f1565b600060209050601f831160018114612ae85760008415612ad6578287015190505b612ae08582612a62565b865550612b48565b601f198416612af6866128d2565b60005b82811015612b1e57848901518255600182019150602085019450602081019050612af9565b86831015612b3b5784890151612b37601f891682612a44565b8355505b6001600288020188555050505b505050505050565b6000606082019050612b656000830186612302565b612b7260208301856125a9565b612b7f6040830184612302565b949350505050565b600081905092915050565b6000612b9d826121bb565b612ba78185612b87565b9350612bb78185602086016121d7565b80840191505092915050565b6000612bcf8285612b92565b9150612bdb8284612b92565b91508190509392505050565b600081519050919050565b600082825260208201905092915050565b6000612c0e82612be7565b612c188185612bf2565b9350612c288185602086016121d7565b612c3181612201565b840191505092915050565b6000608082019050612c516000830187612302565b612c5e6020830186612302565b612c6b60408301856125a9565b8181036060830152612c7d8184612c03565b905095945050505050565b600081519050612c978161212c565b92915050565b600060208284031215612cb357612cb26120f6565b5b6000612cc184828501612c88565b91505092915050565b7f4e487b7100000000000000000000000000000000000000000000000000000000600052601260045260246000fd5b6000604082019050612d0e6000830185612302565b612d1b60208301846125a9565b939250505056fea26469706673582212201526a900d476bff9d802133e51deb8f35e6b0497f84188cc475319a10086838b64736f6c63430008180033",
  "linkReferences": {},
  "deployedLinkReferences": {}
}